056010101202001112206666666               553723456                     M4811222
019000000000000002438LOC 00000000000000010062 BBBBBBBBBBBBBBBBBBBBBBBBASXA000002
23300000000000000000009202002071920010802200208022002                  SMITH-JON
ES              JUNIOR                                  S15932875903181972517555
55551  USRMXH+6W Casper, Wyoming,        United States                   U.S. Po
stal         MI72654    YO